:020000040800F2
:1000000030040020D5000008D51000085D0F00085E
:1000100000000000000000000000000000000000E0
:100020000000000000000000000000008111000836
:1000300000000000000000001D11000883110008EE
:10004000E7000008E700000871110008E700000859
:10005000E700000865010008E7000008E700000865
:1000600000000000E7000008E7000008E7000008C3
:10007000E7000008E700000800000000E7000008B3
:1000800000000000E7000008000000000000000081
:10009000E700000800000000E7000008E700000893
:1000A000E7000008E7000008E7000008E700000894
:1000B000E7000008E7000008000000000000000062
:1000C0000348854600F03CF8004800478F120008BE
:1000D000300400200448804704480047FEE7FEE75C
:1000E000FEE7FEE7FEE7FEE71D120008C10000087C
:1000F00030B50B46014600202022012409E00D46C0
:10010000D5409D4205D31D469540491B2546954047
:1001100040191546521E002DF1DC30BDD2B201E06F
:100120000270401C491EFBD270470022F6E710B552
:1001300013460A4604461946FFF7F0FF204610BD55
:10014000064C0125064E05E0E36807CC2B430C3C2A
:1001500098471034B442F7D3FFF7B6FFBC1200083B
:10016000DC12000810B5012000F004F810BD704743
:100170007047000010B504494A69024202D0486144
:10018000FFF7F6FF10BD000000040140F8B50023A2
:100190000124A2E027469F403A4070D04D68022DCE
:1001A00001D0122D14D1DD08AD002D1800952D6A57
:1001B0005E07AC46F50E0F26AE46AE406546B5432B
:1001C000AC460E697546AE4065462E43009D2E62D4
:1001D0004D68012D05D0022D03D0112D01D0122D17
:1001E00016D185680326AC465D00AE46AE40654636
:1001F000B543AC46CE687546AE4065462E43866034
:1002000046680D79BE43ED06ED0F9D4035434560D0
:1002100006685F000325BD40AE46AE430D79B44687
:10022000AE07B60FBE4065462E430660C6687546EB
:10023000AE438D68BD403543C5604D68ED004BD57C
:10024000294D6E6B26436E639E08284DB6007519C6
:10025000AC46AD689E07360F0F27B740BD43052754
:100260003F07B84201D1002715E0214FB84201D124
:10027000012710E01F4FB84202D102270BE02BE00C
:100280001D4FB84201D1032705E01C4FB84201D1F0
:10029000052700E00627B7402F436546AF60184D9D
:1002A0002E684F689643FF0300D516432E606E6894
:1002B0004F689643BF0300D516436E60AE684F6823
:1002C0009643FF0200D51643AE60EE684F68964332
:1002D000BF0200D51643EE605B1C0A681546DD4080
:1002E00000D057E7F8BD00000010024000000140B8
:1002F0000004005000080050000C0050001C00508A
:1003000000040140002A01D081617047816270477A
:1003100001480068704700000000002002480168A2
:10032000491C0160704700000000002010B508481B
:1003300000240168402211430160204600F00AF8C1
:10034000002801D0012401E000F01CF8204610BD77
:100350000020024070B5054609487D210024C900EF
:100360000068FFF7C5FE00F0E1FD002801D0012480
:1003700004E000222946501E00F01AF8204670BD05
:10038000040000200448416B012211434163816B4A
:10039000020411438163704700100240C106C90E78
:1003A00001208840014908607047000000E100E03A
:1003B00010B500F091FE10BD02480168821511438E
:1003C0000160704700700040F8B504460078544D55
:1003D000800672D5524E0027403EB06BC00004D458
:1003E000B06BA9050843B06301274E480168C905F1
:1003F00011D40168821511430160FFF789FF009055
:1004000005E0FFF785FF0099401A642837D8454872
:100410000068C005F5D532680321090560680A4007
:100420000140914208D08103890F032904D131682A
:10043000890301D50120F8BD2A69032109040A4076
:1004400022D0084090421FD0207880061CD5286911
:100450002A6988430121C9040A432A612A698A4317
:100460002A612861C0050FD5FFF752FF009008E010
:10047000FFF74EFF0099411A2B48814201D9032012
:10048000F8BD28698005F3D561688803800F0328CB
:1004900005D132680005824301400A433260286971
:1004A000032261681204114008432861002F04D020
:1004B000B16B012000078143B1632078C00705D0EC
:1004C000E868A168800880000843E8602078800719
:1004D00005D5E8680C218843E1680843E860207886
:1004E000400706D5E868032189028843216908434B
:1004F000E8602078000706D5E868032109038843EF
:1005000061690843E8602078000606D5E8680321A1
:1005100089048843A1690843E8600020F8BD000011
:10052000401002400070004088130000F8B50E46ED
:1005300005007DD053480068C007C00FB0420AD202
:100540005048016849084900314301600068C0070C
:10055000C00FB04271D128784B4C800705D5E068B8
:10056000F0218843A9680843E0602878C00752D08A
:100570006868022817D0032818D02168012818D0ED
:100580008905002959DAE168890889000143E16099
:10059000FFF7BEFE69680746022912D003291CD066
:1005A000012926D033E021688903EAE7216889011F
:1005B000E7E74907E5E7FFF7ABFEC11B3348814298
:1005C00023D8E0680007800F0228F4D123E0FFF76A
:1005D0009FFEC11B2D48814217D8E0680007800F9D
:1005E0000328F4D117E0FFF793FEC11B274881428F
:1005F0000BD8E0680007800F0128F4D10BE0FFF76B
:1006000087FEC11B2148814201D90320F8BDE06863
:100610000007800FF3D11B480168C907C90FB14219
:100620000DD901684908490031430160006800E0C4
:1006300003E0C007C00FB04201D00120F8BD287808
:10064000400706D5E068072109028843E9680843A6
:10065000E0602878000707D5E0680721C9028843D1
:100660002969C9000843E06000F016F8E168084A0B
:100670000906090F515CC840064908600020FFF7D1
:1006800069FEF8BD002002400010024088130000FF
:10069000A01200080400002010B5184AD1680C20F0
:1006A000084004280BD0082810D00C2810D050681F
:1006B0000004410F0120C003491C884010BD106890
:1006C000C00601D50E4810BD0E4810BD0E4810BD25
:1006D00088020E4B000F185C0902D368890F491C71
:1006E000DB0301D5084A05E01268D20601D5044AA9
:1006F00000E0044A5043FFF7FBFC10BD001002402D
:1007000000093D000024F40000127A00B012000835
:10071000FEB505007ED0FE4CE7680C20E668074079
:100720000120000406402878C00747D0082F05D0D4
:100730000C2F0AD101200004864206D120688003D4
:100740003CD568680028E5D038E0012069680004DD
:10075000814203D121680143216011E00523012278
:100760001B0492049942216802D111432160F1E7F0
:1007700081432160216801400091206890432060FE
:10078000686800280DD0FFF7C3FD009005E0FFF773
:10079000BFFD0099401A64287AD820688003F6D5F6
:1007A0000CE0FFF7B5FD009005E0FFF7B1FD009903
:1007B000401A6428F0D820688003F6D4287880078F
:1007C00055D50923E868042F0DD00C2F01D1002E38
:1007D00009D000283BD02168994301432160FFF7ED
:1007E00097FD064627E02168490701D5002891D0EA
:1007F00061681F22120291432A691202114361604B
:100800002168994301432160FFF746FFE16809062B
:100810000A0F00E079E1BF49895CC840BE49086021
:100820000020FFF797FD002872D120E0FFF770FD50
:10083000801B0228B0D820684007F7D560681F21C8
:100840000902884329690902084360600FE02068B3
:10085000400840002060FFF75BFD064604E0FFF71C
:1008600057FD801B022897D820684007F7D42878C6
:10087000C0065FD5002F0CD0A869002849D0206899
:10088000FF21013108432060FFF742FD06462DE0BD
:10089000C0E02068800502D5A8690028A7D060685C
:1008A000072149038843296A084360606068297FFB
:1008B0000002000A090608436060286A410B012013
:1008C000C003491C8840E16809060A0F9149895C08
:1008D000C840914908600020FFF73CFD002817D16F
:1008E00028E0FFF715FD801B0228A3D820688005AB
:1008F000F7D56068072149038843296A0843606087
:100900006068297F0002000A09060843606011E060
:10091000E1E02168FF20013081432160FFF7F8FC0E
:10092000064604E0FFF7F4FC801B022872D820681A
:100930008005F7D42878794E000724D56869002807
:10094000306910D0012108433061FFF7E1FC0090CD
:1009500005E0FFF7DDFC0099401A02285AD83069FB
:100960008007F6D50FE0400840003061FFF7D0FC6B
:10097000009005E0FFF7CCFC0099401A022849D806
:1009800030698007F6D42878400765D500200290AA
:10099000A06BC00006D4A06B012109070843A06327
:1009A000012002905E480168C90511D401688215D2
:1009B00011430160FFF7ACFC009005E0FFF7A8FCD5
:1009C0000099401A642825D855480068C005F5D517
:1009D000FF20AA680130824203D1316901433161AD
:1009E00011E001218902002A07D005231B029A4247
:1009F00003D132690A433261EFE7326982433261DF
:100A0000306988433061A86800280FD0FFF780FC68
:100A1000009007E05EE0FFF77BFC0099411A414837
:100A2000814257D830698005F5D50DE0FFF770FC9D
:100A3000009006E0FFF76CFC0099411A39488142AA
:100A400048D830698005F5D40298002804D0A06BFE
:100A5000012109078843A063686A002864D00C2F2D
:100A60003ED0012636060228206805D0B04320601B
:100A7000FFF74EFC05462FE0B0432060FFF748FC2F
:100A8000074604E0FFF744FCC01B022822D8206878
:100A90008001F7D4E96AA86AE2680843296BFD235C
:100AA0001B049A4311430843E060206830432060F0
:100AB000FFF72EFC054604E0FFF72AFC401B022846
:100AC00008D820688001F7D52EE0FFF721FC401BF5
:100AD000022801D90320FEBD20688001F5D423E05F
:100AE0000128F8D0E06801210904AA6A0140914276
:100AF0000BD10F218904EA6A0140914205D10321FB
:100B000089050840296B88420ED00120FEBD0000F7
:100B100000100240A0120008040000204010024013
:100B200000700040881300000020EFE7F7B505468D
:100B300004462035287882B0012814D0012028707E
:100B4000022068702168CA204862216853204862E8
:100B50002068806800264005FF27002812DAFFF78A
:100B6000D7FB00900AE0022005B0F0BDFFF7D0FBF4
:100B70000099411A7D20C00081421CD82068C068BD
:100B80004007F3D42068816801229202914381607A
:100B90002068C16880221140204A8918C160FFF78F
:100BA000B7FB00900DE0FFF7B3FB0099411A7D20E1
:100BB000C000814205D920684762032068702E700A
:100BC000D2E72068C0684007EDD5216803984861E6
:100BD00020688168C908C900816020688168049A1A
:100BE000114381600E480268012109050A43026031
:100BF00082680A438260206881680122920311435F
:100C00008160206881681211114381602068476209
:100C1000012068702E700020A6E700007FFBFFFF18
:100C2000000401407047000010B504460068C06829
:100C3000400509D52046FFF7F5FF2068C1688022EE
:100C40001140054A8918C160012004490005486126
:100C500001202034607010BD7FFBFFFF00040140C5
:100C6000F8B5040050D0254620356878002803D117
:100C70002870204600F052F8022068702168CA20CF
:100C80004862216853204862204600F054FAFF264B
:100C900004270028206802D046626F7034E0816823
:100CA0001D4A11408160216888686268A369104309
:100CB00022691A43104388602168E068086120684F
:100CC000016922891204114301612068C1688022F0
:100CD0009143C1602068C16C89088900C164E169E1
:100CE000606901432068C26C1143C1642068806858
:100CF00080060BD4204600F0FFF8002806D02068BC
:100D000046626F70002028700120F8BD206846629E
:100D1000012068700020F8BDBFFF8FFF10B500688C
:100D2000084988420DD10848016901229204114303
:100D30000161002211460220FFF73AFB0220FFF773
:100D40002DFB10BD0028004040100240F8B50546BC
:100D50000446203528780B4601280FD00120287042
:100D600002206870002A0BD0D8789E7800040643D1
:100D70005878097800024903084317E00220F8BDBB
:100D80005878C10603D5EF2108400A305870D8784A
:100D900000F0C5F90604587800F0C1F900020643D6
:100DA000987800F0BCF906431878400306432168A0
:100DB000CA204862216853204862204600F0BBF9EF
:100DC0000027002811D1114806402068466020689D
:100DD000C16880229143C1602068806880060CD47D
:100DE000204600F089F8002807D02168FF204862DB
:100DF000042068702F700120F8BD2168FF20486230
:100E0000012068702F700020F8BD00003FFFFF0038
:100E1000F8B506460446203630780D46012822D023
:100E20000120307002207070206800278068002A3E
:100E30001BD0400600D4EF702978A8780904084335
:100E40006978EA7809021204114308430090216886
:100E5000CA204862216853204862204600F06BF99E
:100E6000002837D116E00220F8BD400600D4EF700C
:100E7000287800F054F90304687800F050F9000273
:100E80000343A87800F04BF90343E87800040343D8
:100E90000093DCE717490098084021680860206843
:100EA000816801229204914381602969E8680843BE
:100EB00021688A68104388602068C1688022914355
:100EC000C1602068806880060CD4204600F014F8C9
:100ED000002807D02168FF20486204207070377016
:100EE0000120F8BD2168FF20486201207070377032
:100EF0000020F8BD7F7F7F0070B504460068C168A0
:100F0000A0229143C160FFF703FA7D260546F60053
:100F100006E0FFF7FDF9401BB04201D9032070BD88
:100F20002068C0688006F4D5002070BD094910B55E
:100F3000401E884201D9012010BD074C6061032189
:100F4000081F00F0C9F80020A061072020610020E0
:100F500010BD0000FFFFFF0000E000E0FEE7000022
:100F6000F0B587B014216846FFF7DFF82D48C26A54
:100F700004210A43C262C26A0A400592C26A802101
:100F80000A43C262C26A0A400592C16A0125294326
:100F9000C162C16A29400591C16A02263143C1621A
:100FA000C06A2A463040059031461F48FFF7AAF92B
:100FB0006803032400276A4691C269461B48FFF76D
:100FC000E5F8009469461A4802970194FFF7DEF8A5
:100FD0001848019005206946029600950007FFF722
:100FE000D5F815486A4691C2052069460007FFF703
:100FF000CDF812486A4691C269460B48FFF7C6F819
:10100000019569460848039700960295FFF7BEF8D8
:10101000002211460520FFF7CBF90520FFF7BEF9A6
:1010200007B0F0BD0010024000040050000800505E
:10103000001C005000001110FE9F0000FDFF00008A
:1010400010B586B014216846FFF76FF800241F49D9
:101050001F48059412C07F2101608460C460046150
:10106000FF21446141600838FFF7FAFD002801D0F4
:10107000FFF77DF868460470447084700394012281
:10108000694613480494FFF7C3FE002801D0FFF718
:101090006EF801206946087548752020887519206A
:1010A000C875012205A90A48FFF750FE002801D0A3
:1010B000FFF75DF80521002249030548FFF736FDDB
:1010C000002801D0FFF753F806B010BD00280040FB
:1010D00008000020704700008307FF22DB0E9A40C3
:1010E0008907090E994000280BDA0007000F08381D
:1010F000830808489B001818C36993430B43C361D6
:101100007047830804489B001B18186890430843E5
:101110001860704700ED00E000E400E07047002236
:10112000014602E00A39C9B2521C0A29FAD2100754
:10113000000E0843704770B504460068C168490650
:1011400013D40021C943C160FFF7E2F87D260546AC
:10115000F60006E0FFF7DCF8401BB04201D903209F
:1011600070BD2068C0684006F4D5002070BD000046
:1011700010B50248FFF758FD10BD00000800002020
:10118000704710B5FFF7CAF810BD000010B59AB04F
:1011900034216846FEF7C9FF14210DA8FEF7C5FFEC
:1011A0001C2112A8FEF7C1FF1A4801680324E402BB
:1011B000A143C21489180160FFF7FEF816480169BF
:1011C000A143016106200090FF2001300290012020
:1011D0000390102004900220099040040B9000011D
:1011E00000240C900A946846FFF792FA0F200D90A5
:1011F00003200E900F941094012111940DA8FFF775
:1012000095F920201290C002139012A8FFF7DCF885
:101210001AB010BD00700040401002401048016834
:10122000821511430160C1680E4A1140C160016816
:101230000D4A1140016081684908490081600168D8
:101240000122920491430160C168FD22120491437E
:10125000C160002101610549C0038860704700003A
:10126000001002400C40FF88F6FFF6FE00ED00E0A3
:1012700002E008C8121F08C1002AFAD1704770475F
:10128000002001E001C1121F002AFBD17047FFF7C7
:101290004DF8FFF77BFFFFF763FEFFF7D1FEFEE798
:1012A0000000000000000000010203040607080916
:1012B000030406080C10182030000000DC1200089F
:1012C000000000200800000070120008E41200086E
:1012D0000800002028040000801200080000000020
:0412E00000002000EA
:04000005080000C12E
:00000001FF
