:020000040800F2
:1000000058050020D5000008DD000008DF000008CA
:1000100000000000000000000000000000000000E0
:10002000000000000000000000000000E1000008E7
:100030000000000000000000E3000008B10F00080D
:10004000E7000008E7000008E7000008E7000008F4
:10005000E700000825020008E7000008E7000008A4
:1000600000000000E7000008E7000008E7000008C3
:10007000E7000008E700000800000000E7000008B3
:1000800000000000E7000008000000000000000081
:10009000E700000800000000E7000008E700000893
:1000A000E7000008E7000008E7000008C91300089F
:1000B000E7000008E7000008000000000000000062
:1000C0000348854600F09CF800480047D51B00080F
:1000D000580500200448804704480047FEE7FEE733
:1000E000FEE7FEE7FEE7FEE7BD0F0008C1000008DF
:1000F00030B50B46014600202022012409E00D46C0
:10010000D5409D4205D31D469540491B2546954047
:1001100040191546521E002DF1DC30BDF0B51FB45C
:100120000646002082B005464024019100901BE065
:10013000019922460F46304600F050F8049A059B7C
:10014000801A994110D310461946224600F036F81D
:10015000361A8F410197224601200021009F00F0AE
:100160002DF838184D4100902046641E0028DFDC31
:10017000019B00982946324607B0F0BDD2B201E09B
:100180000270401C491EFBD270470022F6E710B5F2
:1001900013460A4604461946FFF7F0FF204610BDF5
:1001A00010B5002200E0521C835C8C5CA34201D19C
:1001B000002BF8D1D8B2E1B2401A10BD10B5202AF8
:1001C00004DB0146203A9140002010BD91402023DD
:1001D0009C1A0346E3401943904010BD10B5202AF5
:1001E00004DB0846203AD040002110BD0B46D34026
:1001F000D0402024A21A91400843194610BD0000A7
:10020000064C0125064E05E0E36807CC2B430C3C69
:1002100098471034B442F7D3FFF756FF1C1D00086F
:100220003C1D000810B5012000F038F810BD00009A
:1002300010B502A001F064F910BD00004572726FA4
:10024000725F48616E646C65720A000070B50024CC
:10025000014620314A79022A03D00421C1630124D6
:1002600018E0026813680E25AB4313600268136838
:100270005B085B001360436C1C221340012215468F
:100280009D40036C5D604A7100220A71816B0029F8
:1002900000D08847204670BD7047000010B5044963
:1002A0004A69024202D04861FFF7F6FF10BD000024
:1002B00000040140F8B500230124A2E027469F4036
:1002C0003A4070D04D68022D01D0122D14D1DD08B6
:1002D000AD002D1800952D6A5E07AC46F50E0F2671
:1002E000AE46AE406546B543AC460E697546AE4077
:1002F00065462E43009D2E624D68012D05D0022DCE
:1003000003D0112D01D0122D16D185680326AC46DD
:100310005D00AE46AE406546B543AC46CE68754618
:10032000AE4065462E43866046680D79BE43ED06B5
:10033000ED0F9D403543456006685F000325BD40D5
:10034000AE46AE430D79B446AE07B60FBE40654625
:100350002E430660C6687546AE438D68BD40354382
:10036000C5604D68ED004BD5294D6E6B26436E631D
:100370009E08284DB6007519AC46AD689E07360F2D
:100380000F27B740BD4305273F07B84201D10027DB
:1003900015E0214FB84201D1012710E01F4FB842AC
:1003A00002D102270BE02BE01D4FB84201D10327F9
:1003B00005E01C4FB84201D1052700E00627B740F1
:1003C0002F436546AF60184D2E684F689643FF0374
:1003D00000D516432E606E684F689643BF0300D564
:1003E00016436E60AE684F689643FF0200D5164311
:1003F000AE60EE684F689643BF0200D51643EE60CC
:100400005B1C0A681546DD4000D057E7F8BD0000C8
:10041000001002400000014000040050000800509D
:10042000000C0050001C00500004014042694A408A
:1004300042617047002A01D0816170478162704734
:10044000014800687047000044000020024801682D
:10045000491C0160704700004400002010B50848A6
:1004600000240168402211430160204600F00AF890
:10047000002801D0012401E000F01CF8204610BD46
:100480000020024070B5054609487D210024C900BE
:100490000068FFF72DFE00F0EFFB002801D00124DB
:1004A00004E000222946501E00F010F8204670BDDE
:1004B0000000002070470000C106C90E01208840DE
:1004C000014908607047000000E100E010B500F04D
:1004D0004DFD10BDF8B504460078544D800672D528
:1004E000524E0027403EB06BC00004D4B06BA9054B
:1004F0000843B06301274E480168C90511D401685B
:10050000821511430160FFF79BFF009005E0FFF7A4
:1005100097FF0099401A642837D845480068C005FD
:10052000F5D532680321090560680A40014091420F
:1005300008D08103890F032904D13168890301D5CB
:100540000120F8BD2A69032109040A4022D008408D
:1005500090421FD0207880061CD528692A698843DC
:100560000121C9040A432A612A698A432A61286150
:10057000C0050FD5FFF764FF009008E0FFF760FFAC
:100580000099411A2B48814201D90320F8BD2869FE
:100590008005F3D561688803800F032805D1326890
:1005A0000005824301400A433260286903226168E2
:1005B0001204114008432861002F04D0B16B0120C0
:1005C00000078143B1632078C00705D0E868A168BF
:1005D000800880000843E8602078800705D5E86837
:1005E0000C218843E1680843E8602078400706D57D
:1005F000E86803218902884321690843E86020787C
:10060000000706D5E86803210903884361690843A8
:10061000E8602078000606D5E8680321890488434D
:10062000A1690843E8600020F8BD000040100240C6
:100630000070004088130000F8B50E4605007DD01C
:1006400053480068C007C00FB0420AD25048016842
:1006500049084900314301600068C007C00FB0423B
:1006600071D128784B4C800705D5E068F02188438C
:10067000A9680843E0602878C00752D0686802285B
:1006800017D0032818D02168012818D0890500291F
:1006900059DAE168890889000143E160FFF7D0FE7B
:1006A00069680746022912D003291CD0012926D0E7
:1006B00033E021688903EAE721688901E7E7490710
:1006C000E5E7FFF7BDFEC11B3348814223D8E06850
:1006D0000007800F0228F4D123E0FFF7B1FEC11B11
:1006E0002D48814217D8E0680007800F0328F4D115
:1006F00017E0FFF7A5FEC11B274881420BD8E06831
:100700000007800F0128F4D10BE0FFF799FEC11B11
:100710002148814201D90320F8BDE0680007800F1D
:10072000F3D11B480168C907C90FB1420DD901684F
:100730004908490031430160006800E003E0C00758
:10074000C00FB04201D00120F8BD2878400706D57F
:10075000E068072109028843E9680843E0602878D7
:10076000000707D5E0680721C90288432969C90045
:100770000843E06000F036F8E168084A0906090F0E
:10078000515CC840064908600020FFF77BFEF8BDB9
:10079000002002400010024088130000F81C0008EE
:1007A00000000020044805490068C968044A49055A
:1007B000490F515CC8407047000000200010024003
:1007C000111D0008044805490068C968044A8904E5
:1007D000490F515CC84070470000002000100240E3
:1007E000111D000810B5184AD1680C2008400428D3
:1007F0000BD0082810D00C2810D050680004410FEE
:100800000120C003491C884010BD1068C00601D5F6
:100810000E4810BD0E4810BD0E4810BD88020E4B8C
:10082000000F185C0902D368890F491CDB0301D54E
:10083000084A05E01268D20601D5044A00E0044ADD
:100840005043FFF755FC10BD0010024000093D0069
:100850000024F40000127A00081D0008FEB505000F
:100860007ED0FE4CE7680C20E668074001200004BB
:1008700006402878C00747D0082F05D00C2F0AD192
:1008800001200004864206D1206880033CD56868B8
:100890000028E5D038E0012069680004814203D1D6
:1008A00021680143216011E0052301221B04920409
:1008B0009942216802D111432160F1E7814321600F
:1008C00021680140009120689043206068680028FA
:1008D0000DD0FFF7B5FD009005E0FFF7B1FD0099E1
:1008E000401A64287AD820688003F6D50CE0FFF718
:1008F000A7FD009005E0FFF7A3FD0099401A6428CA
:10090000F0D820688003F6D42878800755D50923CD
:10091000E868042F0DD00C2F01D1002E09D000283B
:100920003BD02168994301432160FFF789FD0646CA
:1009300027E02168490701D5002891D061681F226E
:10094000120291432A69120211436160216899439E
:1009500001432160FFF746FFE16809060A0F00E046
:1009600079E1BF49895CC840BE4908600020FFF7B3
:1009700089FD002872D120E0FFF762FD801B02286C
:10098000B0D820684007F7D560681F210902884366
:1009900029690902084360600FE0206840084000B0
:1009A0002060FFF74DFD064604E0FFF749FD801B80
:1009B000022897D820684007F7D42878C0065FD56A
:1009C000002F0CD0A869002849D02068FF210131F0
:1009D00008432060FFF734FD06462DE0C0E02068A4
:1009E000800502D5A8690028A7D0606807214903BF
:1009F0008843296A084360606068297F0002000A12
:100A0000090608436060286A410B0120C003491CA5
:100A10008840E16809060A0F9149895CC8409149FC
:100A200008600020FFF72EFD002817D128E0FFF70F
:100A300007FD801B0228A3D820688005F7D56068D1
:100A4000072149038843296A084360606068297F59
:100A50000002000A09060843606011E0E1E0216835
:100A6000FF20013081432160FFF7EAFC064604E0E5
:100A7000FFF7E6FC801B022872D820688005F7D4B7
:100A80002878794E000724D568690028306910D08D
:100A9000012108433061FFF7D3FC009005E0FFF728
:100AA000CFFC0099401A02285AD830698007F6D541
:100AB0000FE0400840003061FFF7C2FC009005E005
:100AC000FFF7BEFC0099401A022849D83069800718
:100AD000F6D42878400765D500200290A06BC000AE
:100AE00006D4A06B012109070843A06301200290EE
:100AF0005E480168C90511D401688215114301607F
:100B0000FFF79EFC009005E0FFF79AFC0099401A61
:100B1000642825D855480068C005F5D5FF20AA6887
:100B20000130824203D131690143316111E0012179
:100B30008902002A07D005231B029A4203D1326999
:100B40000A433261EFE73269824332613069884398
:100B50003061A86800280FD0FFF772FC009007E012
:100B60005EE0FFF76DFC0099411A4148814257D879
:100B700030698005F5D50DE0FFF762FC009006E0D6
:100B8000FFF75EFC0099411A3948814248D8306924
:100B90008005F5D40298002804D0A06B0121090734
:100BA0008843A063686A002864D00C2F3ED00126D9
:100BB00036060228206805D0B0432060FFF740FCCD
:100BC00005462FE0B0432060FFF73AFC074604E0FB
:100BD000FFF736FCC01B022822D820688001F7D41A
:100BE000E96AA86AE2680843296BFD231B049A435B
:100BF00011430843E060206830432060FFF720FC89
:100C0000054604E0FFF71CFC401B022808D82068BA
:100C10008001F7D52EE0FFF713FC401B022801D915
:100C20000320FEBD20688001F5D423E00128F8D020
:100C3000E06801210904AA6A014091420BD10F2109
:100C40008904EA6A0140914205D1032189050840DF
:100C5000296B88420ED00120FEBD0000001002402A
:100C6000F81C000800000020401002400070004006
:100C7000881300000020EFE7094910B5401E8842A4
:100C800001D9012010BD074C60610321081F00F04D
:100C90006DF90020A06107202061002010BD000038
:100CA000FFFFFF0000E000E07047704710B5040050
:100CB00003D0606F002802D007E0012010BD0021A2
:100CC00070200155204600F027F824206067206836
:100CD0000168490849000160204600F02FFA012808
:100CE000ECD0606A002802D0204600F091F920681C
:100CF00041680922D20291434160206881682A221A
:100D000091438160206801680122114301602046FF
:100D100000F0E4F910BD000010B586B004461421BF
:100D20006846FFF732FA15492068884224D11448F2
:100D3000416B0122920311434163C16A01221143B5
:100D4000C162C06A694610400590032040020090CD
:100D500002200190002002900320039004200490C0
:100D600005200007FFF7A6FA002211461B20FFF717
:100D7000ADFB1B20FFF7A0FB06B010BD0038014003
:100D800000100240FFB50446406F83B017460D4681
:100D900020285CD1002D0AD0002F08D0A168C00106
:100DA000814207D12069002804D1E80702D0012040
:100DB00007B0F0BD204660300290007C012846D08C
:100DC0000298012101740020E06721206067FFF78D
:100DD00037FB264640360190378277820120A16892
:100DE0000003814202D12069002802D02F4600254D
:100DF00011E000270FE000228021204600F0B2FA27
:100E0000002815D1002F15D02168387888627F1C02
:100E1000708A401E7082708A019B0028069800909C
:100E2000E9D100224021204600F09CFA002808D099
:100E30000320BDE728882168C005C00D8862AD1C6D
:100E4000E6E720206067029900200874B0E70220DE
:100E5000AEE70000F0B587B014216846FFF795F9BA
:100E60002D48C26A04210A43C262C26A0A4005923E
:100E7000C26A80210A43C262C26A0A400592C16AFC
:100E800001252943C162C16A29400591C16A022630
:100E90003143C162C06A2A463040059031461F483E
:100EA000FFF7C8FA6803032400276A4691C269461F
:100EB0001B48FFF7FFF9009469461A48029701940E
:100EC000FFF7F8F918480190052069460296009549
:100ED0000007FFF7EFF915486A4691C205206946F9
:100EE0000007FFF7E7F912486A4691C269460B48C6
:100EF000FFF7E0F9019569460848039700960295C7
:100F0000FFF7D8F9002211460520FFF7DFFA052088
:100F1000FFF7D2FA07B0F0BD001002400004005005
:100F200000080050001C005000001110FE99000045
:100F3000FDFF000010B50C480A490160E12149029B
:100F4000416000218160C16001618161C1610C2249
:100F5000016242614162FFF7A9FE002801D0FFF75C
:100F600067F910BD00380140780000208307FF2298
:100F7000DB0E9A408907090E994000280BDA00071A
:100F8000000F0838830808489B001818C36993436A
:100F90000B43C3617047830804489B001B18186803
:100FA000904308431860704700ED00E000E400E063
:100FB00010B500F075FDFFF749FA10BD1048016843
:100FC000821511430160C1680E4A1140C160016879
:100FD0000D4A11400160816849084900816001683B
:100FE0000122920491430160C168FD2212049143E1
:100FF000C160002101610549C0038860704700009D
:10100000001002400C40FF88F6FFF6FE00ED00E005
:1010100010B5818CC90707D001684A6801235B04B9
:101020009A43836A1A434A60818C890707D501680D
:101030004A6801231B049A43C36A1A434A60818C9D
:10104000490707D501684A6801239B049A43036B4B
:101050001A434A60818C090707D501684A68012351
:10106000DB039A43436B1A434A60818CC90607D558
:101070000268916801231B039943836B19439160B4
:10108000818C890607D501688A6801235B039A432E
:10109000C36B1A438A60818C490612D503685A686B
:1010A00001210905046C8A4322435A60026C8A427A
:1010B00007D10268516803235B059943436C1943C8
:1010C0005160818C090607D501684A680123DB0459
:1010D000806C9A4302434A6010BD0000F8B50026B8
:1010E0000446C667FFF7ACF9054620680068124F52
:1010F000000709D501212B4600224905204600970B
:1011000000F030F900280DD12068006840070BD5A9
:1011100001212B46002289052046009700F022F984
:10112000002801D00320F8BD20206067A06760344C
:1011300026740020F8BD0000FFFFFF01F8B504464B
:101140002669A268E76932436669102000253E439C
:101150002368324378491E68784F3E4016431E602C
:1011600023685A6803263603B243E66832435A605E
:101170002368A2698B4201D0266A32439E680B27FE
:101180003F02BE4316439E606D4E23686D4AB342D4
:101190000CD1D2689207920F06D0012A38D0022AC9
:1011A00034D0032A20D11EE001201DE0664EB34258
:1011B0000AD1D2680C26324026D0042A28D0082A28
:1011C00024D00C2A10D10EE08B420DD1D668032218
:1011D0009202164018D001229202B61A18D0B61AFE
:1011E00014D0964200D10820564A0126403A574F63
:1011F000F6038B4236D100280CD002280DD00428EB
:1012000012D008281FD11CE00020EDE70220EBE7F8
:101210000420E9E7FFF7C6FA08E01068C00601D528
:10122000384605E04A4803E0FFF7DCFA002873D0AF
:10123000626851005118814205D81103814202D3DE
:1012400003E03046F4E7012566E0010E060250088F
:10125000002330185941FEF761FF03210902411AAA
:101260003C4A55E0E169B14232D1030000F058F93F
:1012700009070A0D06250606062B0600E3E7FFF719
:1012800091FA1CE0FFF79EFA19E010686168C00649
:1012900002D54808304A01E0304A48088018FEF775
:1012A00027FF80B201462E4A10399142CBD8511CFB
:1012B00001400007400F08432CE0FFF793FA6168F4
:1012C00040004A08EAE76168012248081204E5E79D
:1012D000030000F025F909070A0D06260606062C6C
:1012E0000600B0E7FFF75EFA1DE0FFF76BFA1AE0C1
:1012F00010686168C00602D54808C01902E01448A9
:101300004A081018FEF7F4FE80B20146144A10395C
:10131000914298D82168C8600020206660662846FF
:10132000F8BDFFF75FFA61684A088018EAE761686C
:1013300048088019E6E7000000480040F369FFEF25
:1013400000380140401002400044004000093D00C8
:101350000024F400FFFC0F0000127A000048E801AE
:10136000EFFF0000FFB581B017460E4604460A9D08
:1013700009E0681C07D0FFF763F80499401AA842F7
:101380000CD8002D0AD02068C1693046884318D097
:101390000020B842EDD0002005B0F0BD2068016803
:1013A000FF22A13291430160206881684908490009
:1013B000816020206067A0670020603420740320D3
:1013C000EAE70120E5E7000010B5024800F004F864
:1013D00010BD000078000020F8B503680446D86905
:1013E00019689A6805072D0F54D0D507ED0FFF2611
:1013F00021360E402E436BD0C60706D0CE0504D54D
:1014000001261E62E36F3343E36787070223042646
:10141000002F06DAD70704D027683B62E76F37430F
:10142000E767470706D5D20704D022681662E26F45
:101430001A43E267020709D520220A402A4305D051
:10144000236808221A62E36F1343E367E26F002AFE
:1014500033D0800606D5880604D5216E002901D038
:1014600020468847E16F20688268520601D4090748
:1014700028D58168490621D5816840229143816041
:10148000E06E00281AD0FEF7E1FE002815D0E06ECD
:10149000816B30E085061BD58D0619D5216E00299C
:1014A00001D0204688472068416A1448017040688E
:1014B000002802D0022100F0F1F9F8BD2046FFF724
:1014C000F4FBF8BD2046FFF7F0FB0020E067F8BD15
:1014D000C50208D5520206D5012000051862204633
:1014E000FFF7E2FBF8BD0206FCD50A06FAD5616EED
:1014F0000029F7D020468847F8BD000020000020D2
:101500000FB410B503A9044B044A029800F024F864
:1015100010BC08BC04B01847691B00085C00002020
:1015200030B47446641E2578641CAB4200D21D465C
:10153000635D5B00E31830BC184702E008C8121F67
:1015400008C1002AFAD170477047002001E001C1AC
:10155000121F002AFBD17047FFB581B00546002756
:1015600006E025280AD0049A039990476D1C7F1C39
:1015700028780028F5D1384605B0F0BD00226978FA
:101580006D1C10462E2913D1697804226D1C2A295E
:1015900009D102996D1C01C9029109E00A2358433F
:1015A000303808186D1C29780B46303B092BF5D9CB
:1015B0002B78002BDFD0632B07D0732B10D0049A2D
:1015C0001846039990477F1C2DE002996C460B78D2
:1015D0002370091D0291002161706E46012104E013
:1015E000029940C902910021C94352070AD500243B
:1015F00000E0641C84420DDA8C42FADB325D002A82
:10160000F7D107E0002400E0641C8C42FCDB305D75
:101610000028F9D13F1904E03078049A761C039928
:101620009047641EF8D26D1CA2E7000010B50BA015
:1016300000F0DAF80A490028086003D109A10CA0DB
:10164000FFF75EFF0F49104800F0C8F9FF22F5329E
:1016500000210D4800F0FEF910BD00006C6564002B
:10166000540000206170705F6C65645F6465760093
:101670004255472061742061737365727428257325
:10168000290A0000151C0008F800002010B5FFF71B
:10169000CDFF00F001F810BD38B51249124800F036
:1016A0009DF97D22D20000210F4800F0D3F90E48A9
:1016B0000E49203000F014F90DA000F095F80E4C02
:1016C0000028206003D10DA110A0FFF719FF4B20C7
:1016D000C001054900906A462031206800F072F888
:1016E00038BD0000F11B000818010020C11C0008D3
:1016F0007573617274310000580000206170705F72
:1017000075736172745F646576000000425547200E
:10171000617420617373657274282573290A00004F
:1017200010B500F0E5F910BD10B59AB0FEF796FEC1
:1017300034216846FEF729FD14210DA8FEF725FD8A
:101740001C2112A8FEF721FD1D4801680322D202C8
:101750009143C214891801600A200090102004905F
:1017600002200990400401210B9000010591002402
:101770000C9003910A946846FFF770F8002801D096
:10178000FEF756FD0F200D9003200E900F9410943D
:10179000012111940DA8FEF74FFF002801D0FEF79C
:1017A00047FD21201290012040041390149412A8A8
:1017B000FEF790FE002801D0FEF73AFD1AB010BDEA
:1017C00000700040002804D043689B69002B00D0C3
:1017D000184700207047002804D043685B69002B3D
:1017E00000D018470020704770B5054607480468C8
:1017F00006E029462068FEF7D3FC002804D0A46840
:10180000002CF6D1002070BD204670BD5000002095
:1018100030B4002806D04468E468002C02D0A44606
:1018200030BC604730BC002070470000F8B50400B1
:1018300017D0124D01262F6806E021683868FEF7A0
:10184000AFFC00280DD0BF68002FF6D12068002122
:10185000002806D06068002803D02868002802D03D
:1018600004E00020F8BD2C6004E010468268002AE5
:10187000FBD184603046A160F8BD0000500000201C
:1018800030B4002806D044682469002C02D0A44655
:1018900030BC604730BC002070470000F8B50646F9
:1018A0000E480D46446800F06BF9074600F01EF93B
:1018B0000CE020783178884207D160692843606164
:1018C000384600F092F90120F8BDE469002CF0D10F
:1018D000384600F08AF90020F8BD000048000020DA
:1018E000F8B51B4D0F4604466E6800F049F90090AC
:1018F00000F0FCF8002C04D0204600F02BF8002863
:1019000004D0009800F071F90020F8BD0020607448
:10191000012161722174A76160616968002907D1A2
:101920002978491C2970297821706C6009E00E46DD
:10193000F1690029FBD12978491C29702978217087
:10194000F461E061009800F050F90120F8BD00005A
:10195000480000200649496806E00A7803789A4260
:1019600001D101207047C9690029F6D100207047D4
:1019700048000020F8B518480025446828E0207C7D
:10198000002824D0A06900280ED06669002E08D057
:1019900000F0F6F8074600F0A9F83846656100F057
:1019A00024F9A16930468847607C012808D100F0FD
:1019B000E7F8064600F09AF82574304600F015F96D
:1019C000207A002803D0607C012800D16572E46988
:1019D000002CD4D1F8BD000048000020F8B51C4D03
:1019E0000F4604466E6800F0CBF8009000F07EF8D9
:1019F000002C04D02046FFF7ADFF002804D000984B
:101A000000F0F3F80020F8BD01216174002020747B
:101A1000606021726072E060A7616061696800299E
:101A200007D12978491C2970297821706C6009E058
:101A30000E46F1690029FBD12978491C29702978C3
:101A40002170F461E061009800F0CFF80120F8BD4A
:101A500048000020F8B50446104816460F46456871
:101A600000F08EF8009000F041F810E0287821781E
:101A700088420BD166602772012060720021E1600C
:101A80006074009800F0B1F80120F8BDED69002DF8
:101A9000ECD1009800F0A9F80020F8BD4800002023
:101AA000F8B5114800250126446819E0607C01283A
:101AB00015D1607A002812D0E068401CE0606168AF
:101AC00088420CD3E560A069002808D000F058F8DF
:101AD000074600F00BF82674384600F086F8E469F3
:101AE000002CE3D1F8BD00004800002072B670471A
:101AF00070B5144C144D04E0002C01D020688047D0
:101B0000241DAC42F8D3114C114D04E0002C01D03F
:101B100020688047241DAC42F8D30E4C0E4D04E0E3
:101B2000002C01D020688047241DAC42F8D30B4C18
:101B30000B4D04E0002C01D020688047241DAC42EE
:101B4000F8D370BD3C1D0008401D000800000000D7
:101B500000000000401D0008481D000800000000B3
:101B60000000000062B6704713B5FF2301226946EA
:101B70000248FFF707F900981CBD0000780000201C
:101B8000EFF310807047000010B50848022907D015
:101B9000002909D000220221FEF74CFC012010BDD3
:101BA0000221FEF743FCF9E70122F4E700040050AC
:101BB00010B5FFF74FF905480349416004A10160E2
:101BC000FFF734FE10BD000004000020600000207C
:101BD0006C656400FFF78AFFFFF7A2FDFFF756FD73
:101BE000FFF7C0FFFFF7C6FEFCE780F310887047E1
:101BF00010B502A0FFF784FC10BD00006170705F9B
:101C000075736172742072756E6E696E672E2E2EFA
:101C10000D0A000010B50348002202210068FFF7FA
:101C2000DAFD10BD5400002010B50C46106800F01D
:101C300007F802484460002010BD0000200000208A
:101C400070B50546FFF776F9074C20466560FFF74B
:101C50002DF8206801682022114301602068816806
:101C600001221143816070BD780000200248007895
:101C700010700120704700002000002010B51146B0
:101C80001C469AB2FF230248FFF77CF8204610BD9D
:101C90007800002010B5E1204002FFF7D1FF064890
:101CA00003A1016005494160FFF7C0FD10BD0000C0
:101CB00075736172743100006C00002028000020F0
:101CC00010B588B0044620216846FEF75EFAA007EA
:101CD0000DD5084C01236A4600212068FFF798FDC6
:101CE000030004D06A4600212068FFF7C9FD08B050
:101CF00010BD00005800002000000000000000009F
:101D00000102030406070809030406080C10182042
:101D1000300000000001020304000000481D00081C
:101D200000000020600000003A150008A81D00080F
:101D300060000020F80400004A1500082917000878
:101D4000B11B0008951C00080000200000000000E6
:101D50000000000000000000000000000000000083
:101D6000891B0008000000000000000000000000C7
:101D70000000000000000000000000006D1C0008D2
:101D80007D1C000800000000291C00080000000065
:101D90000000000000000000000000000000000043
:081DA00000000000000000003B
:04000005080000C12E
:00000001FF
