:020000040800F2
:1000000060040020D5000008DD000008DF000008C3
:1000100000000000000000000000000000000000E0
:10002000000000000000000000000000E1000008E7
:100030000000000000000000E30000087D0C000844
:10004000E7000008E7000008E7000008E7000008F4
:10005000E700000881010008E7000008E700000849
:1000600000000000E7000008E7000008E7000008C3
:10007000E7000008E700000800000000E7000008B3
:1000800000000000E7000008000000000000000081
:10009000E700000800000000E7000008E700000893
:1000A000E7000008E7000008E7000008E700000894
:1000B000E7000008E7000008000000000000000062
:1000C0000348854600F04AF800480047BD10000884
:1000D000600400200448804704480047FEE7FEE72C
:1000E000FEE7FEE7FEE7FEE7890C0008C100000816
:1000F00030B50B46014600202022012409E00D46C0
:10010000D5409D4205D31D469540491B2546954047
:1001100040191546521E002DF1DC30BDD2B201E06F
:100120000270401C491EFBD270470022F6E710B552
:1001300013460A4604461946FFF7F0FF204610BD55
:1001400010B5002200E0521C835C8C5CA34201D1FC
:10015000002BF8D1D8B2E1B2401A10BD064C0125EF
:10016000064E05E0E36807CC2B430C3C984710345F
:10017000B442F7D3FFF7A8FF0811000828110008C0
:1001800010B5012000F002F810BD704710B5044909
:100190004A69024202D04861FFF7F7FF10BD000034
:1001A00000040140F8B500230124A2E027469F4047
:1001B0003A4070D04D68022D01D0122D14D1DD08C7
:1001C000AD002D1800952D6A5E07AC46F50E0F2682
:1001D000AE46AE406546B543AC460E697546AE4088
:1001E00065462E43009D2E624D68012D05D0022DDF
:1001F00003D0112D01D0122D16D185680326AC46EF
:100200005D00AE46AE406546B543AC46CE68754629
:10021000AE4065462E43866046680D79BE43ED06C6
:10022000ED0F9D403543456006685F000325BD40E6
:10023000AE46AE430D79B446AE07B60FBE40654636
:100240002E430660C6687546AE438D68BD40354393
:10025000C5604D68ED004BD5294D6E6B26436E632E
:100260009E08284DB6007519AC46AD689E07360F3E
:100270000F27B740BD4305273F07B84201D10027EC
:1002800015E0214FB84201D1012710E01F4FB842BD
:1002900002D102270BE02BE01D4FB84201D103270A
:1002A00005E01C4FB84201D1052700E00627B74002
:1002B0002F436546AF60184D2E684F689643FF0385
:1002C00000D516432E606E684F689643BF0300D575
:1002D00016436E60AE684F689643FF0200D5164322
:1002E000AE60EE684F689643BF0200D51643EE60DD
:1002F0005B1C0A681546DD4000D057E7F8BD0000DA
:1003000000100240000001400004005000080050AE
:10031000000C0050001C00500004014042694A409B
:1003200042617047002A01D0816170478162704745
:1003300001480068704700001C0000200248016866
:10034000491C0160704700001C00002010B50848DF
:1003500000240168402211430160204600F00AF8A1
:10036000002801D0012401E000F01CF8204610BD57
:100370000020024070B5054609487D210024C900CF
:100380000068FFF7B5FE00F0CFFB002801D0012484
:1003900004E000222946501E00F010F8204670BDEF
:1003A0000000002070470000C106C90E01208840EF
:1003B000014908607047000000E100E010B500F05E
:1003C0003BFC10BDF8B504460078544D800672D54C
:1003D000524E0027403EB06BC00004D4B06BA9055C
:1003E0000843B06301274E480168C90511D401686C
:1003F000821511430160FFF79BFF009005E0FFF7B6
:1004000097FF0099401A642837D845480068C0050E
:10041000F5D532680321090560680A400140914220
:1004200008D08103890F032904D13168890301D5DC
:100430000120F8BD2A69032109040A4022D008409E
:1004400090421FD0207880061CD528692A698843ED
:100450000121C9040A432A612A698A432A61286161
:10046000C0050FD5FFF764FF009008E0FFF760FFBD
:100470000099411A2B48814201D90320F8BD28690F
:100480008005F3D561688803800F032805D13268A1
:100490000005824301400A433260286903226168F3
:1004A0001204114008432861002F04D0B16B0120D1
:1004B00000078143B1632078C00705D0E868A168D0
:1004C000800880000843E8602078800705D5E86848
:1004D0000C218843E1680843E8602078400706D58E
:1004E000E86803218902884321690843E86020788D
:1004F000000706D5E86803210903884361690843BA
:10050000E8602078000606D5E8680321890488435E
:10051000A1690843E8600020F8BD000040100240D7
:100520000070004088130000F8B50E4605007DD02D
:1005300053480068C007C00FB0420AD25048016853
:1005400049084900314301600068C007C00FB0424C
:1005500071D128784B4C800705D5E068F02188439D
:10056000A9680843E0602878C00752D0686802286C
:1005700017D0032818D02168012818D08905002930
:1005800059DAE168890889000143E160FFF7D0FE8C
:1005900069680746022912D003291CD0012926D0F8
:1005A00033E021688903EAE721688901E7E7490721
:1005B000E5E7FFF7BDFEC11B3348814223D8E06861
:1005C0000007800F0228F4D123E0FFF7B1FEC11B22
:1005D0002D48814217D8E0680007800F0328F4D126
:1005E00017E0FFF7A5FEC11B274881420BD8E06842
:1005F0000007800F0128F4D10BE0FFF799FEC11B23
:100600002148814201D90320F8BDE0680007800F2E
:10061000F3D11B480168C907C90FB1420DD9016860
:100620004908490031430160006800E003E0C00769
:10063000C00FB04201D00120F8BD2878400706D590
:10064000E068072109028843E9680843E0602878E8
:10065000000707D5E0680721C90288432969C90056
:100660000843E06000F016F8E168084A0906090F3F
:10067000515CC840064908600020FFF77BFEF8BDCA
:10068000002002400010024088130000EC10000817
:100690000000002010B5184AD1680C20084004283A
:1006A0000BD0082810D00C2810D050680004410F3F
:1006B0000120C003491C884010BD1068C00601D548
:1006C0000E4810BD0E4810BD0E4810BD88020E4BDE
:1006D000000F185C0902D368890F491CDB0301D5A0
:1006E000084A05E01268D20601D5044A00E0044A2F
:1006F0005043FFF7FDFC10BD0010024000093D0013
:100700000024F40000127A00FC100008FEB5050079
:100710007ED0FE4CE7680C20E6680740012000040C
:1007200006402878C00747D0082F05D00C2F0AD1E3
:1007300001200004864206D1206880033CD5686809
:100740000028E5D038E0012069680004814203D127
:1007500021680143216011E0052301221B0492045A
:100760009942216802D111432160F1E78143216060
:10077000216801400091206890432060686800284B
:100780000DD0FFF7D5FD009005E0FFF7D1FD0099F2
:10079000401A64287AD820688003F6D50CE0FFF769
:1007A000C7FD009005E0FFF7C3FD0099401A6428DB
:1007B000F0D820688003F6D42878800755D509231F
:1007C000E868042F0DD00C2F01D1002E09D000288D
:1007D0003BD02168994301432160FFF7A9FD0646FC
:1007E00027E02168490701D5002891D061681F22C0
:1007F000120291432A6912021143616021689943F0
:1008000001432160FFF746FFE16809060A0F00E097
:1008100079E1BF49895CC840BE4908600020FFF704
:10082000A9FD002872D120E0FFF782FD801B02287D
:10083000B0D820684007F7D560681F2109028843B7
:1008400029690902084360600FE020684008400001
:100850002060FFF76DFD064604E0FFF769FD801B91
:10086000022897D820684007F7D42878C0065FD5BB
:10087000002F0CD0A869002849D02068FF21013141
:1008800008432060FFF754FD06462DE0C0E02068D5
:10089000800502D5A8690028A7D060680721490310
:1008A0008843296A084360606068297F0002000A63
:1008B000090608436060286A410B0120C003491CF7
:1008C0008840E16809060A0F9149895CC84091494E
:1008D00008600020FFF74EFD002817D128E0FFF741
:1008E00027FD801B0228A3D820688005F7D5606803
:1008F000072149038843296A084360606068297FAB
:100900000002000A09060843606011E0E1E0216886
:10091000FF20013081432160FFF70AFD064604E015
:10092000FFF706FD801B022872D820688005F7D4E7
:100930002878794E000724D568690028306910D0DE
:10094000012108433061FFF7F3FC009005E0FFF759
:10095000EFFC0099401A02285AD830698007F6D572
:100960000FE0400840003061FFF7E2FC009005E036
:10097000FFF7DEFC0099401A022849D83069800749
:10098000F6D42878400765D500200290A06BC000FF
:1009900006D4A06B012109070843A063012002903F
:1009A0005E480168C90511D40168821511430160D0
:1009B000FFF7BEFC009005E0FFF7BAFC0099401A73
:1009C000642825D855480068C005F5D5FF20AA68D9
:1009D0000130824203D131690143316111E00121CB
:1009E0008902002A07D005231B029A4203D13269EB
:1009F0000A433261EFE732698243326130698843EA
:100A00003061A86800280FD0FFF792FC009007E043
:100A10005EE0FFF78DFC0099411A4148814257D8AA
:100A200030698005F5D50DE0FFF782FC009006E007
:100A3000FFF77EFC0099411A3948814248D8306955
:100A40008005F5D40298002804D0A06B0121090785
:100A50008843A063686A002864D00C2F3ED001262A
:100A600036060228206805D0B0432060FFF760FCFE
:100A700005462FE0B0432060FFF75AFC074604E02C
:100A8000FFF756FCC01B022822D820688001F7D44B
:100A9000E96AA86AE2680843296BFD231B049A43AC
:100AA00011430843E060206830432060FFF740FCBA
:100AB000054604E0FFF73CFC401B022808D82068EC
:100AC0008001F7D52EE0FFF733FC401B022801D947
:100AD0000320FEBD20688001F5D423E00128F8D072
:100AE000E06801210904AA6A014091420BD10F215B
:100AF0008904EA6A0140914205D103218905084031
:100B0000296B88420ED00120FEBD0000001002407B
:100B1000EC1000080000002040100240007000406F
:100B2000881300000020EFE7094910B5401E8842F5
:100B300001D9012010BD074C60610321081F00F09E
:100B40007BF80020A06107202061002010BD00007C
:100B5000FFFFFF0000E000E0F0B587B01421684619
:100B6000FFF7E3FA2D48C26A04210A43C262C26A4F
:100B70000A400592C26A80210A43C262C26A0A40E0
:100B80000592C16A01252943C162C16A29400591C4
:100B9000C16A02263143C162C06A2A4630400590CC
:100BA00031461F48FFF7BEFB6803032400276A464F
:100BB00091C269461B48FFF7F5FA009469461A4846
:100BC00002970194FFF7EEFA184801900520694654
:100BD000029600950007FFF7E5FA15486A4691C2AC
:100BE000052069460007FFF7DDFA12486A4691C200
:100BF00069460B48FFF7D6FA0195694608480397FE
:100C000000960295FFF7CEFA002211460520FFF765
:100C1000D5FB0520FFF7C8FB07B0F0BD0010024070
:100C20000004005000080050001C0050000011108B
:100C3000FE9F0000FDFF00008307FF22DB0E9A40AD
:100C40008907090E994000280BDA0007000F0838C1
:100C5000830808489B001818C36993430B43C3617A
:100C60007047830804489B001B181868904308438A
:100C70001860704700ED00E000E400E010B500F0FF
:100C80008FF9FFF75BFB10BD104801688215114317
:100C90000160C1680E4A1140C16001680D4A1140EF
:100CA000016081684908490081600168012292045D
:100CB00091430160C168FD2212049143C16000218B
:100CC00001610549C00388607047000000100240C0
:100CD0000C40FF88F6FFF6FE00ED00E002E008C8D9
:100CE000121F08C1002AFAD170477047002001E0A6
:100CF00001C1121F002AFBD17047000010B508A0E7
:100D000000F06AF8074908600749084800F0E6F86B
:100D1000FF22F5320021054800F01CF910BD00004B
:100D20006C6564002C000020D91000083C000020F5
:100D300010B5FFF7E3FF10BD10B500F059F910BD75
:100D400010B59AB0FFF702FB34216846FFF7EDF9C2
:100D500014210DA8FFF7E9F91C2112A8FFF7E5F906
:100D6000174801680322D2029143C2148918016016
:100D70000A200090102004900220099040040121D4
:100D80000B900001059100240C9003910A94684691
:100D9000FFF7BCFC0F200D9003200E900F941094D1
:100DA000012111940DA8FFF7BFFB21201290012013
:100DB00040041390149412A8FFF704FB1AB010BD5E
:100DC00000700040002804D043685B69002B00D00D
:100DD000184700207047000070B5054607480468B2
:100DE00006E029462068FFF7ABF9002804D0A46884
:100DF000002CF6D1002070BD204670BD28000020D8
:100E0000F8B5040017D0124D01262F6806E02168BE
:100E10003868FFF795F900280DD0BF68002FF6D18C
:100E200020680021002806D06068002803D02868C8
:100E3000002802D004E00020F8BD2C6004E0104639
:100E40008268002AFBD184603046A160F8BD0000B2
:100E5000280000200649496806E00A7803789A428B
:100E600001D101207047C9690029F6D100207047DF
:100E700020000020F8B518480025446828E0207CB0
:100E8000002824D0A06900280ED06669002E08D062
:100E900000F0EAF8074600F0A9F83846656100F06E
:100EA00018F9A16930468847607C012808D100F014
:100EB000DBF8064600F09AF82574304600F009F990
:100EC000207A002803D0607C012800D16572E46993
:100ED000002CD4D1F8BD000020000020F8B51C4D36
:100EE0000F4604466E6800F0BFF8009000F07EF8F0
:100EF000002C04D02046FFF7ADFF002804D0009856
:100F000000F0E7F80020F8BD012161740020207492
:100F1000606021726072E060A761606169680029A9
:100F200007D12978491C2970297821706C6009E063
:100F30000E46F1690029FBD12978491C29702978CE
:100F40002170F461E061009800F0C3F80120F8BD61
:100F500020000020F8B50446104816460F464568A4
:100F600000F082F8009000F041F810E02878217835
:100F700088420BD166602772012060720021E16017
:100F80006074009800F0A5F80120F8BDED69002D0F
:100F9000ECD1009800F09DF80020F8BD2000002062
:100FA000F8B5114800250126446819E0607C012845
:100FB00015D1607A002812D0E068401CE0606168BA
:100FC00088420CD3E560A069002808D000F04CF8F6
:100FD000074600F00BF82674384600F07AF8E4690A
:100FE000002CE3D1F8BD00002000002072B670474D
:100FF00070B5144C144D04E0002C01D020688047DB
:10100000241DAC42F8D3114C114D04E0002C01D04A
:1010100020688047241DAC42F8D30E4C0E4D04E0EE
:10102000002C01D020688047241DAC42F8D30B4C23
:101030000B4D04E0002C01D020688047241DAC42F9
:10104000F8D370BD281100082C1100080000000022
:10105000000000002C110008301100080000000002
:101060000000000062B67047EFF310807047000088
:1010700010B50848022907D0002909D00022022112
:10108000FFF750F9012010BD0221FFF747F9F9E7FA
:101090000122F4E70004005010B5FFF75DFD05489C
:1010A0000349416004A10160FFF7AAFE10BD0000E2
:1010B00004000020300000206C656400FFF796FFFC
:1010C000FFF73AFEFFF734FEFFF7CCFFFFF7D2FE43
:1010D000FCE780F31088704710B503480022022116
:1010E0000068FFF76FFE10BD2C000020000000001C
:1010F00000000000010203040607080903040608B3
:101100000C101820300000003011000800000020F2
:1011100030000000DC0C00086011000830000020E6
:1011200030040000EC0C0008410D00089910000884
:10113000000020000000000000000000000000008F
:101140000000000000000000711000080000000016
:10115000000000000000000000000000000000008F
:04000005080000C12E
:00000001FF
